{
  "_format": "hh-sol-artifact-1",
  "contractName": "FarmNetOrder",
  "sourceName": "contracts/FarmNetOrder.sol",
  "abi": [
    {
      "anonymous": false,
      "inputs": [
        {
          "indexed": false,
          "internalType": "uint256",
          "name": "id",
          "type": "uint256"
        },
        {
          "indexed": true,
          "internalType": "address",
          "name": "buyer",
          "type": "address"
        },
        {
          "indexed": true,
          "internalType": "address",
          "name": "farmer",
          "type": "address"
        },
        {
          "indexed": false,
          "internalType": "string",
          "name": "productName",
          "type": "string"
        },
        {
          "indexed": false,
          "internalType": "uint256",
          "name": "amount",
          "type": "uint256"
        },
        {
          "indexed": false,
          "internalType": "uint256",
          "name": "timestamp",
          "type": "uint256"
        }
      ],
      "name": "OrderPlaced",
      "type": "event"
    },
    {
      "anonymous": false,
      "inputs": [
        {
          "indexed": true,
          "internalType": "uint256",
          "name": "id",
          "type": "uint256"
        },
        {
          "indexed": false,
          "internalType": "string",
          "name": "status",
          "type": "string"
        }
      ],
      "name": "OrderStatusUpdated",
      "type": "event"
    },
    {
      "inputs": [
        {
          "internalType": "uint256",
          "name": "_id",
          "type": "uint256"
        }
      ],
      "name": "getOrder",
      "outputs": [
        {
          "components": [
            {
              "internalType": "uint256",
              "name": "id",
              "type": "uint256"
            },
            {
              "internalType": "address",
              "name": "buyer",
              "type": "address"
            },
            {
              "internalType": "address",
              "name": "farmer",
              "type": "address"
            },
            {
              "internalType": "string",
              "name": "productName",
              "type": "string"
            },
            {
              "internalType": "uint256",
              "name": "amount",
              "type": "uint256"
            },
            {
              "internalType": "uint256",
              "name": "timestamp",
              "type": "uint256"
            },
            {
              "internalType": "string",
              "name": "status",
              "type": "string"
            }
          ],
          "internalType": "struct FarmNetOrder.Order",
          "name": "",
          "type": "tuple"
        }
      ],
      "stateMutability": "view",
      "type": "function"
    },
    {
      "inputs": [],
      "name": "orderCount",
      "outputs": [
        {
          "internalType": "uint256",
          "name": "",
          "type": "uint256"
        }
      ],
      "stateMutability": "view",
      "type": "function"
    },
    {
      "inputs": [
        {
          "internalType": "uint256",
          "name": "",
          "type": "uint256"
        }
      ],
      "name": "orders",
      "outputs": [
        {
          "internalType": "uint256",
          "name": "id",
          "type": "uint256"
        },
        {
          "internalType": "address",
          "name": "buyer",
          "type": "address"
        },
        {
          "internalType": "address",
          "name": "farmer",
          "type": "address"
        },
        {
          "internalType": "string",
          "name": "productName",
          "type": "string"
        },
        {
          "internalType": "uint256",
          "name": "amount",
          "type": "uint256"
        },
        {
          "internalType": "uint256",
          "name": "timestamp",
          "type": "uint256"
        },
        {
          "internalType": "string",
          "name": "status",
          "type": "string"
        }
      ],
      "stateMutability": "view",
      "type": "function"
    },
    {
      "inputs": [
        {
          "internalType": "address",
          "name": "_farmer",
          "type": "address"
        },
        {
          "internalType": "string",
          "name": "_productName",
          "type": "string"
        },
        {
          "internalType": "uint256",
          "name": "_amount",
          "type": "uint256"
        }
      ],
      "name": "placeOrder",
      "outputs": [],
      "stateMutability": "nonpayable",
      "type": "function"
    },
    {
      "inputs": [
        {
          "internalType": "uint256",
          "name": "_id",
          "type": "uint256"
        },
        {
          "internalType": "string",
          "name": "_status",
          "type": "string"
        }
      ],
      "name": "updateOrderStatus",
      "outputs": [],
      "stateMutability": "nonpayable",
      "type": "function"
    }
  ],
  "bytecode": "0x608060405234801561001057600080fd5b5061142e806100206000396000f3fe608060405234801561001057600080fd5b50600436106100575760003560e01c8063205fdde61461005c57806321d4209c146100785780632453ffa814610094578063a85c38ef146100b2578063d09ef241146100e8575b600080fd5b61007660048036038101906100719190610acd565b610118565b005b610092600480360381019061008d9190610b87565b610210565b005b61009c6104d0565b6040516100a99190610c05565b60405180910390f35b6100cc60048036038101906100c79190610c20565b6104d6565b6040516100df9796959493929190610cdb565b60405180910390f35b61010260048036038101906100fd9190610c20565b610668565b60405161010f9190610e63565b60405180910390f35b60006001600084815260200190815260200160002090503373ffffffffffffffffffffffffffffffffffffffff168160020160009054906101000a900473ffffffffffffffffffffffffffffffffffffffff1673ffffffffffffffffffffffffffffffffffffffff16146101c1576040517f08c379a00000000000000000000000000000000000000000000000000000000081526004016101b890610ed1565b60405180910390fd5b818160060190816101d291906110fd565b50827f69cc2ff377f3eb15084b7510fd6ee5543db4f1e15b8385d9f0c804cbe9edd0fc8360405161020391906111cf565b60405180910390a2505050565b600073ffffffffffffffffffffffffffffffffffffffff168373ffffffffffffffffffffffffffffffffffffffff160361027f576040517f08c379a00000000000000000000000000000000000000000000000000000000081526004016102769061123d565b60405180910390fd5b600081116102c2576040517f08c379a00000000000000000000000000000000000000000000000000000000081526004016102b9906112a9565b60405180910390fd5b6000808154809291906102d4906112f8565b91905055506040518060e0016040528060005481526020013373ffffffffffffffffffffffffffffffffffffffff1681526020018473ffffffffffffffffffffffffffffffffffffffff1681526020018381526020018281526020014281526020016040518060400160405280600681526020017f506c61636564000000000000000000000000000000000000000000000000000081525081525060016000805481526020019081526020016000206000820151816000015560208201518160010160006101000a81548173ffffffffffffffffffffffffffffffffffffffff021916908373ffffffffffffffffffffffffffffffffffffffff16021790555060408201518160020160006101000a81548173ffffffffffffffffffffffffffffffffffffffff021916908373ffffffffffffffffffffffffffffffffffffffff160217905550606082015181600301908161043091906110fd565b506080820151816004015560a0820151816005015560c082015181600601908161045a91906110fd565b509050508273ffffffffffffffffffffffffffffffffffffffff163373ffffffffffffffffffffffffffffffffffffffff167f1bd6edc5af2e06b3a3810acb4d8ad09d941222c137495eb46820fd1a07ade6b36000548585426040516104c39493929190611340565b60405180910390a3505050565b60005481565b60016020528060005260406000206000915090508060000154908060010160009054906101000a900473ffffffffffffffffffffffffffffffffffffffff16908060020160009054906101000a900473ffffffffffffffffffffffffffffffffffffffff169080600301805461054b90610f20565b80601f016020809104026020016040519081016040528092919081815260200182805461057790610f20565b80156105c45780601f10610599576101008083540402835291602001916105c4565b820191906000526020600020905b8154815290600101906020018083116105a757829003601f168201915b5050505050908060040154908060050154908060060180546105e590610f20565b80601f016020809104026020016040519081016040528092919081815260200182805461061190610f20565b801561065e5780601f106106335761010080835404028352916020019161065e565b820191906000526020600020905b81548152906001019060200180831161064157829003601f168201915b5050505050905087565b6106706108d4565b60008211801561068257506000548211155b6106c1576040517f08c379a00000000000000000000000000000000000000000000000000000000081526004016106b8906113d8565b60405180910390fd5b600160008381526020019081526020016000206040518060e0016040529081600082015481526020016001820160009054906101000a900473ffffffffffffffffffffffffffffffffffffffff1673ffffffffffffffffffffffffffffffffffffffff1673ffffffffffffffffffffffffffffffffffffffff1681526020016002820160009054906101000a900473ffffffffffffffffffffffffffffffffffffffff1673ffffffffffffffffffffffffffffffffffffffff1673ffffffffffffffffffffffffffffffffffffffff1681526020016003820180546107a590610f20565b80601f01602080910402602001604051908101604052809291908181526020018280546107d190610f20565b801561081e5780601f106107f35761010080835404028352916020019161081e565b820191906000526020600020905b81548152906001019060200180831161080157829003601f168201915b50505050508152602001600482015481526020016005820154815260200160068201805461084b90610f20565b80601f016020809104026020016040519081016040528092919081815260200182805461087790610f20565b80156108c45780601f10610899576101008083540402835291602001916108c4565b820191906000526020600020905b8154815290600101906020018083116108a757829003601f168201915b5050505050815250509050919050565b6040518060e0016040528060008152602001600073ffffffffffffffffffffffffffffffffffffffff168152602001600073ffffffffffffffffffffffffffffffffffffffff168152602001606081526020016000815260200160008152602001606081525090565b6000604051905090565b600080fd5b600080fd5b6000819050919050565b61096481610951565b811461096f57600080fd5b50565b6000813590506109818161095b565b92915050565b600080fd5b600080fd5b6000601f19601f8301169050919050565b7f4e487b7100000000000000000000000000000000000000000000000000000000600052604160045260246000fd5b6109da82610991565b810181811067ffffffffffffffff821117156109f9576109f86109a2565b5b80604052505050565b6000610a0c61093d565b9050610a1882826109d1565b919050565b600067ffffffffffffffff821115610a3857610a376109a2565b5b610a4182610991565b9050602081019050919050565b82818337600083830152505050565b6000610a70610a6b84610a1d565b610a02565b905082815260208101848484011115610a8c57610a8b61098c565b5b610a97848285610a4e565b509392505050565b600082601f830112610ab457610ab3610987565b5b8135610ac4848260208601610a5d565b91505092915050565b60008060408385031215610ae457610ae3610947565b5b6000610af285828601610972565b925050602083013567ffffffffffffffff811115610b1357610b1261094c565b5b610b1f85828601610a9f565b9150509250929050565b600073ffffffffffffffffffffffffffffffffffffffff82169050919050565b6000610b5482610b29565b9050919050565b610b6481610b49565b8114610b6f57600080fd5b50565b600081359050610b8181610b5b565b92915050565b600080600060608486031215610ba057610b9f610947565b5b6000610bae86828701610b72565b935050602084013567ffffffffffffffff811115610bcf57610bce61094c565b5b610bdb86828701610a9f565b9250506040610bec86828701610972565b9150509250925092565b610bff81610951565b82525050565b6000602082019050610c1a6000830184610bf6565b92915050565b600060208284031215610c3657610c35610947565b5b6000610c4484828501610972565b91505092915050565b610c5681610b49565b82525050565b600081519050919050565b600082825260208201905092915050565b60005b83811015610c96578082015181840152602081019050610c7b565b60008484015250505050565b6000610cad82610c5c565b610cb78185610c67565b9350610cc7818560208601610c78565b610cd081610991565b840191505092915050565b600060e082019050610cf0600083018a610bf6565b610cfd6020830189610c4d565b610d0a6040830188610c4d565b8181036060830152610d1c8187610ca2565b9050610d2b6080830186610bf6565b610d3860a0830185610bf6565b81810360c0830152610d4a8184610ca2565b905098975050505050505050565b610d6181610951565b82525050565b610d7081610b49565b82525050565b600082825260208201905092915050565b6000610d9282610c5c565b610d9c8185610d76565b9350610dac818560208601610c78565b610db581610991565b840191505092915050565b600060e083016000830151610dd86000860182610d58565b506020830151610deb6020860182610d67565b506040830151610dfe6040860182610d67565b5060608301518482036060860152610e168282610d87565b9150506080830151610e2b6080860182610d58565b5060a0830151610e3e60a0860182610d58565b5060c083015184820360c0860152610e568282610d87565b9150508091505092915050565b60006020820190508181036000830152610e7d8184610dc0565b905092915050565b7f4f6e6c79206661726d65722063616e2075706461746520737461747573000000600082015250565b6000610ebb601d83610c67565b9150610ec682610e85565b602082019050919050565b60006020820190508181036000830152610eea81610eae565b9050919050565b7f4e487b7100000000000000000000000000000000000000000000000000000000600052602260045260246000fd5b60006002820490506001821680610f3857607f821691505b602082108103610f4b57610f4a610ef1565b5b50919050565b60008190508160005260206000209050919050565b60006020601f8301049050919050565b600082821b905092915050565b600060088302610fb37fffffffffffffffffffffffffffffffffffffffffffffffffffffffffffffffff82610f76565b610fbd8683610f76565b95508019841693508086168417925050509392505050565b6000819050919050565b6000610ffa610ff5610ff084610951565b610fd5565b610951565b9050919050565b6000819050919050565b61101483610fdf565b61102861102082611001565b848454610f83565b825550505050565b600090565b61103d611030565b61104881848461100b565b505050565b5b8181101561106c57611061600082611035565b60018101905061104e565b5050565b601f8211156110b15761108281610f51565b61108b84610f66565b8101602085101561109a578190505b6110ae6110a685610f66565b83018261104d565b50505b505050565b600082821c905092915050565b60006110d4600019846008026110b6565b1980831691505092915050565b60006110ed83836110c3565b9150826002028217905092915050565b61110682610c5c565b67ffffffffffffffff81111561111f5761111e6109a2565b5b6111298254610f20565b611134828285611070565b600060209050601f8311600181146111675760008415611155578287015190505b61115f85826110e1565b8655506111c7565b601f19841661117586610f51565b60005b8281101561119d57848901518255600182019150602085019450602081019050611178565b868310156111ba57848901516111b6601f8916826110c3565b8355505b6001600288020188555050505b505050505050565b600060208201905081810360008301526111e98184610ca2565b905092915050565b7f496e76616c6964206661726d6572206164647265737300000000000000000000600082015250565b6000611227601683610c67565b9150611232826111f1565b602082019050919050565b600060208201905081810360008301526112568161121a565b9050919050565b7f416d6f756e74206d7573742062652067726561746572207468616e207a65726f600082015250565b6000611293602083610c67565b915061129e8261125d565b602082019050919050565b600060208201905081810360008301526112c281611286565b9050919050565b7f4e487b7100000000000000000000000000000000000000000000000000000000600052601160045260246000fd5b600061130382610951565b91507fffffffffffffffffffffffffffffffffffffffffffffffffffffffffffffffff8203611335576113346112c9565b5b600182019050919050565b60006080820190506113556000830187610bf6565b81810360208301526113678186610ca2565b90506113766040830185610bf6565b6113836060830184610bf6565b95945050505050565b7f496e76616c6964206f7264657220494400000000000000000000000000000000600082015250565b60006113c2601083610c67565b91506113cd8261138c565b602082019050919050565b600060208201905081810360008301526113f1816113b5565b905091905056fea2646970667358221220de18f146fac8f1f65cb755cada4b2459e898f750696a6ed36039649ce3f690b364736f6c63430008140033",
  "linkReferences": {},
  "deployedLinkReferences": {}
}