{
  "_format": "hh-sol-artifact-1",
  "contractName": "OrderVerifier",
  "sourceName": "contracts/OrderVerifier.sol",
  "abi": [
    {
      "anonymous": false,
      "inputs": [
        {
          "indexed": true,
          "internalType": "address",
          "name": "verifier",
          "type": "address"
        },
        {
          "indexed": false,
          "internalType": "string",
          "name": "orderId",
          "type": "string"
        },
        {
          "indexed": false,
          "internalType": "string",
          "name": "details",
          "type": "string"
        }
      ],
      "name": "OrderVerified",
      "type": "event"
    },
    {
      "inputs": [
        {
          "internalType": "string",
          "name": "orderId",
          "type": "string"
        }
      ],
      "name": "isVerified",
      "outputs": [
        {
          "internalType": "bool",
          "name": "",
          "type": "bool"
        }
      ],
      "stateMutability": "view",
      "type": "function"
    },
    {
      "inputs": [
        {
          "internalType": "string",
          "name": "",
          "type": "string"
        }
      ],
      "name": "verifiedOrders",
      "outputs": [
        {
          "internalType": "bool",
          "name": "",
          "type": "bool"
        }
      ],
      "stateMutability": "view",
      "type": "function"
    },
    {
      "inputs": [
        {
          "internalType": "string",
          "name": "orderId",
          "type": "string"
        },
        {
          "internalType": "string",
          "name": "details",
          "type": "string"
        }
      ],
      "name": "verifyOrder",
      "outputs": [],
      "stateMutability": "nonpayable",
      "type": "function"
    }
  ],
  "bytecode": "0x608060405234801561001057600080fd5b5061061f806100206000396000f3fe608060405234801561001057600080fd5b50600436106100415760003560e01c8063234c76d514610046578063bd79437914610076578063dcc3c8e914610092575b600080fd5b610060600480360381019061005b919061037d565b6100c2565b60405161006d91906103e1565b60405180910390f35b610090600480360381019061008b91906103fc565b6100f6565b005b6100ac60048036038101906100a7919061037d565b6101ed565b6040516100b991906103e1565b60405180910390f35b600080826040516100d391906104e5565b908152602001604051809103902060009054906101000a900460ff169050919050565b60008260405161010691906104e5565b908152602001604051809103902060009054906101000a900460ff1615610162576040517f08c379a000000000000000000000000000000000000000000000000000000000815260040161015990610559565b60405180910390fd5b600160008360405161017491906104e5565b908152602001604051809103902060006101000a81548160ff0219169083151502179055503373ffffffffffffffffffffffffffffffffffffffff167f069090a0b381a646a91c6938a19eba103e27dc53e6e9a555c368262f00deb08f83836040516101e19291906105b2565b60405180910390a25050565b6000818051602081018201805184825260208301602085012081835280955050505050506000915054906101000a900460ff1681565b6000604051905090565b600080fd5b600080fd5b600080fd5b600080fd5b6000601f19601f8301169050919050565b7f4e487b7100000000000000000000000000000000000000000000000000000000600052604160045260246000fd5b61028a82610241565b810181811067ffffffffffffffff821117156102a9576102a8610252565b5b80604052505050565b60006102bc610223565b90506102c88282610281565b919050565b600067ffffffffffffffff8211156102e8576102e7610252565b5b6102f182610241565b9050602081019050919050565b82818337600083830152505050565b600061032061031b846102cd565b6102b2565b90508281526020810184848401111561033c5761033b61023c565b5b6103478482856102fe565b509392505050565b600082601f83011261036457610363610237565b5b813561037484826020860161030d565b91505092915050565b6000602082840312156103935761039261022d565b5b600082013567ffffffffffffffff8111156103b1576103b0610232565b5b6103bd8482850161034f565b91505092915050565b60008115159050919050565b6103db816103c6565b82525050565b60006020820190506103f660008301846103d2565b92915050565b600080604083850312156104135761041261022d565b5b600083013567ffffffffffffffff81111561043157610430610232565b5b61043d8582860161034f565b925050602083013567ffffffffffffffff81111561045e5761045d610232565b5b61046a8582860161034f565b9150509250929050565b600081519050919050565b600081905092915050565b60005b838110156104a857808201518184015260208101905061048d565b60008484015250505050565b60006104bf82610474565b6104c9818561047f565b93506104d981856020860161048a565b80840191505092915050565b60006104f182846104b4565b915081905092915050565b600082825260208201905092915050565b7f4f7264657220616c726561647920766572696669656400000000000000000000600082015250565b60006105436016836104fc565b915061054e8261050d565b602082019050919050565b6000602082019050818103600083015261057281610536565b9050919050565b600061058482610474565b61058e81856104fc565b935061059e81856020860161048a565b6105a781610241565b840191505092915050565b600060408201905081810360008301526105cc8185610579565b905081810360208301526105e08184610579565b9050939250505056fea26469706673582212209bb31739bf7ce50bf708c9d1a3595d57c64d6d6acb961f7dad842e4e56ec711964736f6c63430008140033",
  "linkReferences": {},
  "deployedLinkReferences": {}
}