{
  "_format": "hh-sol-artifact-1",
  "contractName": "ProductTracking",
  "sourceName": "contracts/ProductTracking.sol",
  "abi": [
    {
      "anonymous": false,
      "inputs": [
        {
          "indexed": false,
          "internalType": "uint256",
          "name": "id",
          "type": "uint256"
        },
        {
          "indexed": false,
          "internalType": "string",
          "name": "name",
          "type": "string"
        },
        {
          "indexed": false,
          "internalType": "string",
          "name": "origin",
          "type": "string"
        },
        {
          "indexed": true,
          "internalType": "address",
          "name": "farmer",
          "type": "address"
        }
      ],
      "name": "ProductAdded",
      "type": "event"
    },
    {
      "anonymous": false,
      "inputs": [
        {
          "indexed": false,
          "internalType": "uint256",
          "name": "id",
          "type": "uint256"
        },
        {
          "indexed": true,
          "internalType": "address",
          "name": "consumer",
          "type": "address"
        }
      ],
      "name": "ProductDelivered",
      "type": "event"
    },
    {
      "anonymous": false,
      "inputs": [
        {
          "indexed": false,
          "internalType": "uint256",
          "name": "id",
          "type": "uint256"
        },
        {
          "indexed": false,
          "internalType": "string",
          "name": "location",
          "type": "string"
        },
        {
          "indexed": false,
          "internalType": "string",
          "name": "status",
          "type": "string"
        },
        {
          "indexed": true,
          "internalType": "address",
          "name": "updater",
          "type": "address"
        }
      ],
      "name": "ProductUpdated",
      "type": "event"
    },
    {
      "inputs": [
        {
          "internalType": "string",
          "name": "_name",
          "type": "string"
        },
        {
          "internalType": "string",
          "name": "_origin",
          "type": "string"
        }
      ],
      "name": "addProduct",
      "outputs": [],
      "stateMutability": "nonpayable",
      "type": "function"
    },
    {
      "inputs": [
        {
          "internalType": "uint256",
          "name": "_id",
          "type": "uint256"
        }
      ],
      "name": "getProduct",
      "outputs": [
        {
          "components": [
            {
              "internalType": "uint256",
              "name": "id",
              "type": "uint256"
            },
            {
              "internalType": "string",
              "name": "name",
              "type": "string"
            },
            {
              "internalType": "string",
              "name": "origin",
              "type": "string"
            },
            {
              "internalType": "address",
              "name": "farmer",
              "type": "address"
            },
            {
              "internalType": "address",
              "name": "consumer",
              "type": "address"
            },
            {
              "internalType": "bool",
              "name": "delivered",
              "type": "bool"
            },
            {
              "internalType": "string",
              "name": "currentLocation",
              "type": "string"
            },
            {
              "internalType": "string",
              "name": "status",
              "type": "string"
            },
            {
              "internalType": "uint256",
              "name": "timestamp",
              "type": "uint256"
            }
          ],
          "internalType": "struct ProductTracking.Product",
          "name": "",
          "type": "tuple"
        }
      ],
      "stateMutability": "view",
      "type": "function"
    },
    {
      "inputs": [
        {
          "internalType": "uint256",
          "name": "_id",
          "type": "uint256"
        },
        {
          "internalType": "address",
          "name": "_consumer",
          "type": "address"
        }
      ],
      "name": "markDelivered",
      "outputs": [],
      "stateMutability": "nonpayable",
      "type": "function"
    },
    {
      "inputs": [],
      "name": "productCount",
      "outputs": [
        {
          "internalType": "uint256",
          "name": "",
          "type": "uint256"
        }
      ],
      "stateMutability": "view",
      "type": "function"
    },
    {
      "inputs": [
        {
          "internalType": "uint256",
          "name": "",
          "type": "uint256"
        }
      ],
      "name": "products",
      "outputs": [
        {
          "internalType": "uint256",
          "name": "id",
          "type": "uint256"
        },
        {
          "internalType": "string",
          "name": "name",
          "type": "string"
        },
        {
          "internalType": "string",
          "name": "origin",
          "type": "string"
        },
        {
          "internalType": "address",
          "name": "farmer",
          "type": "address"
        },
        {
          "internalType": "address",
          "name": "consumer",
          "type": "address"
        },
        {
          "internalType": "bool",
          "name": "delivered",
          "type": "bool"
        },
        {
          "internalType": "string",
          "name": "currentLocation",
          "type": "string"
        },
        {
          "internalType": "string",
          "name": "status",
          "type": "string"
        },
        {
          "internalType": "uint256",
          "name": "timestamp",
          "type": "uint256"
        }
      ],
      "stateMutability": "view",
      "type": "function"
    },
    {
      "inputs": [
        {
          "internalType": "uint256",
          "name": "_id",
          "type": "uint256"
        },
        {
          "internalType": "string",
          "name": "_location",
          "type": "string"
        },
        {
          "internalType": "string",
          "name": "_status",
          "type": "string"
        }
      ],
      "name": "updateProduct",
      "outputs": [],
      "stateMutability": "nonpayable",
      "type": "function"
    }
  ],
  "bytecode": "0x608060405234801561001057600080fd5b506119f8806100206000396000f3fe608060405234801561001057600080fd5b50600436106100625760003560e01c80630ecbabff1461006757806350af3f72146100835780637acc0b201461009f578063b9db15b4146100d7578063ca2efb5514610107578063e0f6ef8714610123575b600080fd5b610081600480360381019061007c9190610f4f565b610141565b005b61009d60048036038101906100989190611038565b61026f565b005b6100b960048036038101906100b49190611078565b610412565b6040516100ce9998979695949392919061115d565b60405180910390f35b6100f160048036038101906100ec9190611078565b6106cd565b6040516100fe9190611357565b60405180910390f35b610121600480360381019061011c9190611379565b610a6f565b005b61012b610d3f565b60405161013891906113f1565b60405180910390f35b60006001600085815260200190815260200160002090503373ffffffffffffffffffffffffffffffffffffffff168160030160009054906101000a900473ffffffffffffffffffffffffffffffffffffffff1673ffffffffffffffffffffffffffffffffffffffff16146101ea576040517f08c379a00000000000000000000000000000000000000000000000000000000081526004016101e190611458565b60405180910390fd5b828160050190816101fb9190611684565b508181600601908161020d9190611684565b504281600701819055503373ffffffffffffffffffffffffffffffffffffffff167f5d0dd9e7704ca1513612da85865a84d060c94fdfeb479eb9ac7393543c284d7285858560405161026193929190611756565b60405180910390a250505050565b60006001600084815260200190815260200160002090503373ffffffffffffffffffffffffffffffffffffffff168160030160009054906101000a900473ffffffffffffffffffffffffffffffffffffffff1673ffffffffffffffffffffffffffffffffffffffff1614610318576040517f08c379a000000000000000000000000000000000000000000000000000000000815260040161030f906117e7565b60405180910390fd5b818160040160006101000a81548173ffffffffffffffffffffffffffffffffffffffff021916908373ffffffffffffffffffffffffffffffffffffffff16021790555060018160040160146101000a81548160ff0219169083151502179055506040518060400160405280600981526020017f44656c69766572656400000000000000000000000000000000000000000000008152508160060190816103be9190611684565b508173ffffffffffffffffffffffffffffffffffffffff167f3b9a2bc92f86b656bcb1ebf7bae17a2692a817afab798105a68a61b76220b76e8460405161040591906113f1565b60405180910390a2505050565b600160205280600052604060002060009150905080600001549080600101805461043b906114a7565b80601f0160208091040260200160405190810160405280929190818152602001828054610467906114a7565b80156104b45780601f10610489576101008083540402835291602001916104b4565b820191906000526020600020905b81548152906001019060200180831161049757829003601f168201915b5050505050908060020180546104c9906114a7565b80601f01602080910402602001604051908101604052809291908181526020018280546104f5906114a7565b80156105425780601f1061051757610100808354040283529160200191610542565b820191906000526020600020905b81548152906001019060200180831161052557829003601f168201915b5050505050908060030160009054906101000a900473ffffffffffffffffffffffffffffffffffffffff16908060040160009054906101000a900473ffffffffffffffffffffffffffffffffffffffff16908060040160149054906101000a900460ff16908060050180546105b6906114a7565b80601f01602080910402602001604051908101604052809291908181526020018280546105e2906114a7565b801561062f5780601f106106045761010080835404028352916020019161062f565b820191906000526020600020905b81548152906001019060200180831161061257829003601f168201915b505050505090806006018054610644906114a7565b80601f0160208091040260200160405190810160405280929190818152602001828054610670906114a7565b80156106bd5780601f10610692576101008083540402835291602001916106bd565b820191906000526020600020905b8154815290600101906020018083116106a057829003601f168201915b5050505050908060070154905089565b6106d5610d45565b6000821180156106e757506000548211155b610726576040517f08c379a000000000000000000000000000000000000000000000000000000000815260040161071d90611853565b60405180910390fd5b60016000838152602001908152602001600020604051806101200160405290816000820154815260200160018201805461075f906114a7565b80601f016020809104026020016040519081016040528092919081815260200182805461078b906114a7565b80156107d85780601f106107ad576101008083540402835291602001916107d8565b820191906000526020600020905b8154815290600101906020018083116107bb57829003601f168201915b505050505081526020016002820180546107f1906114a7565b80601f016020809104026020016040519081016040528092919081815260200182805461081d906114a7565b801561086a5780601f1061083f5761010080835404028352916020019161086a565b820191906000526020600020905b81548152906001019060200180831161084d57829003601f168201915b505050505081526020016003820160009054906101000a900473ffffffffffffffffffffffffffffffffffffffff1673ffffffffffffffffffffffffffffffffffffffff1673ffffffffffffffffffffffffffffffffffffffff1681526020016004820160009054906101000a900473ffffffffffffffffffffffffffffffffffffffff1673ffffffffffffffffffffffffffffffffffffffff1673ffffffffffffffffffffffffffffffffffffffff1681526020016004820160149054906101000a900460ff1615151515815260200160058201805461094a906114a7565b80601f0160208091040260200160405190810160405280929190818152602001828054610976906114a7565b80156109c35780601f10610998576101008083540402835291602001916109c3565b820191906000526020600020905b8154815290600101906020018083116109a657829003601f168201915b505050505081526020016006820180546109dc906114a7565b80601f0160208091040260200160405190810160405280929190818152602001828054610a08906114a7565b8015610a555780601f10610a2a57610100808354040283529160200191610a55565b820191906000526020600020905b815481529060010190602001808311610a3857829003601f168201915b505050505081526020016007820154815250509050919050565b6000825111610ab3576040517f08c379a0000000000000000000000000000000000000000000000000000000008152600401610aaa906118bf565b60405180910390fd5b6000815111610af7576040517f08c379a0000000000000000000000000000000000000000000000000000000008152600401610aee9061192b565b60405180910390fd5b600080815480929190610b099061197a565b919050555060405180610120016040528060005481526020018381526020018281526020013373ffffffffffffffffffffffffffffffffffffffff168152602001600073ffffffffffffffffffffffffffffffffffffffff1681526020016000151581526020018281526020016040518060400160405280600981526020017f48617276657374656400000000000000000000000000000000000000000000008152508152602001428152506001600080548152602001908152602001600020600082015181600001556020820151816001019081610be89190611684565b506040820151816002019081610bfe9190611684565b5060608201518160030160006101000a81548173ffffffffffffffffffffffffffffffffffffffff021916908373ffffffffffffffffffffffffffffffffffffffff16021790555060808201518160040160006101000a81548173ffffffffffffffffffffffffffffffffffffffff021916908373ffffffffffffffffffffffffffffffffffffffff16021790555060a08201518160040160146101000a81548160ff02191690831515021790555060c0820151816005019081610cc29190611684565b5060e0820151816006019081610cd89190611684565b5061010082015181600701559050503373ffffffffffffffffffffffffffffffffffffffff167f3b57b518fcac2f7b307764de2a4b23b8543199fbd772f419dcb5a470edbc0ba76000548484604051610d3393929190611756565b60405180910390a25050565b60005481565b604051806101200160405280600081526020016060815260200160608152602001600073ffffffffffffffffffffffffffffffffffffffff168152602001600073ffffffffffffffffffffffffffffffffffffffff1681526020016000151581526020016060815260200160608152602001600081525090565b6000604051905090565b600080fd5b600080fd5b6000819050919050565b610de681610dd3565b8114610df157600080fd5b50565b600081359050610e0381610ddd565b92915050565b600080fd5b600080fd5b6000601f19601f8301169050919050565b7f4e487b7100000000000000000000000000000000000000000000000000000000600052604160045260246000fd5b610e5c82610e13565b810181811067ffffffffffffffff82111715610e7b57610e7a610e24565b5b80604052505050565b6000610e8e610dbf565b9050610e9a8282610e53565b919050565b600067ffffffffffffffff821115610eba57610eb9610e24565b5b610ec382610e13565b9050602081019050919050565b82818337600083830152505050565b6000610ef2610eed84610e9f565b610e84565b905082815260208101848484011115610f0e57610f0d610e0e565b5b610f19848285610ed0565b509392505050565b600082601f830112610f3657610f35610e09565b5b8135610f46848260208601610edf565b91505092915050565b600080600060608486031215610f6857610f67610dc9565b5b6000610f7686828701610df4565b935050602084013567ffffffffffffffff811115610f9757610f96610dce565b5b610fa386828701610f21565b925050604084013567ffffffffffffffff811115610fc457610fc3610dce565b5b610fd086828701610f21565b9150509250925092565b600073ffffffffffffffffffffffffffffffffffffffff82169050919050565b600061100582610fda565b9050919050565b61101581610ffa565b811461102057600080fd5b50565b6000813590506110328161100c565b92915050565b6000806040838503121561104f5761104e610dc9565b5b600061105d85828601610df4565b925050602061106e85828601611023565b9150509250929050565b60006020828403121561108e5761108d610dc9565b5b600061109c84828501610df4565b91505092915050565b6110ae81610dd3565b82525050565b600081519050919050565b600082825260208201905092915050565b60005b838110156110ee5780820151818401526020810190506110d3565b60008484015250505050565b6000611105826110b4565b61110f81856110bf565b935061111f8185602086016110d0565b61112881610e13565b840191505092915050565b61113c81610ffa565b82525050565b60008115159050919050565b61115781611142565b82525050565b600061012082019050611173600083018c6110a5565b8181036020830152611185818b6110fa565b90508181036040830152611199818a6110fa565b90506111a86060830189611133565b6111b56080830188611133565b6111c260a083018761114e565b81810360c08301526111d481866110fa565b905081810360e08301526111e881856110fa565b90506111f86101008301846110a5565b9a9950505050505050505050565b61120f81610dd3565b82525050565b600082825260208201905092915050565b6000611231826110b4565b61123b8185611215565b935061124b8185602086016110d0565b61125481610e13565b840191505092915050565b61126881610ffa565b82525050565b61127781611142565b82525050565b6000610120830160008301516112966000860182611206565b50602083015184820360208601526112ae8282611226565b915050604083015184820360408601526112c88282611226565b91505060608301516112dd606086018261125f565b5060808301516112f0608086018261125f565b5060a083015161130360a086018261126e565b5060c083015184820360c086015261131b8282611226565b91505060e083015184820360e08601526113358282611226565b91505061010083015161134c610100860182611206565b508091505092915050565b60006020820190508181036000830152611371818461127d565b905092915050565b600080604083850312156113905761138f610dc9565b5b600083013567ffffffffffffffff8111156113ae576113ad610dce565b5b6113ba85828601610f21565b925050602083013567ffffffffffffffff8111156113db576113da610dce565b5b6113e785828601610f21565b9150509250929050565b600060208201905061140660008301846110a5565b92915050565b7f4f6e6c79206661726d65722063616e2075706461746500000000000000000000600082015250565b60006114426016836110bf565b915061144d8261140c565b602082019050919050565b6000602082019050818103600083015261147181611435565b9050919050565b7f4e487b7100000000000000000000000000000000000000000000000000000000600052602260045260246000fd5b600060028204905060018216806114bf57607f821691505b6020821081036114d2576114d1611478565b5b50919050565b60008190508160005260206000209050919050565b60006020601f8301049050919050565b600082821b905092915050565b60006008830261153a7fffffffffffffffffffffffffffffffffffffffffffffffffffffffffffffffff826114fd565b61154486836114fd565b95508019841693508086168417925050509392505050565b6000819050919050565b600061158161157c61157784610dd3565b61155c565b610dd3565b9050919050565b6000819050919050565b61159b83611566565b6115af6115a782611588565b84845461150a565b825550505050565b600090565b6115c46115b7565b6115cf818484611592565b505050565b5b818110156115f3576115e86000826115bc565b6001810190506115d5565b5050565b601f82111561163857611609816114d8565b611612846114ed565b81016020851015611621578190505b61163561162d856114ed565b8301826115d4565b50505b505050565b600082821c905092915050565b600061165b6000198460080261163d565b1980831691505092915050565b6000611674838361164a565b9150826002028217905092915050565b61168d826110b4565b67ffffffffffffffff8111156116a6576116a5610e24565b5b6116b082546114a7565b6116bb8282856115f7565b600060209050601f8311600181146116ee57600084156116dc578287015190505b6116e68582611668565b86555061174e565b601f1984166116fc866114d8565b60005b82811015611724578489015182556001820191506020850194506020810190506116ff565b86831015611741578489015161173d601f89168261164a565b8355505b6001600288020188555050505b505050505050565b600060608201905061176b60008301866110a5565b818103602083015261177d81856110fa565b9050818103604083015261179181846110fa565b9050949350505050565b7f4f6e6c79206661726d65722063616e206d61726b2064656c6976657265640000600082015250565b60006117d1601e836110bf565b91506117dc8261179b565b602082019050919050565b60006020820190508181036000830152611800816117c4565b9050919050565b7f496e76616c69642070726f647563742049440000000000000000000000000000600082015250565b600061183d6012836110bf565b915061184882611807565b602082019050919050565b6000602082019050818103600083015261186c81611830565b9050919050565b7f50726f64756374206e616d652072657175697265640000000000000000000000600082015250565b60006118a96015836110bf565b91506118b482611873565b602082019050919050565b600060208201905081810360008301526118d88161189c565b9050919050565b7f50726f64756374206f726967696e207265717569726564000000000000000000600082015250565b60006119156017836110bf565b9150611920826118df565b602082019050919050565b6000602082019050818103600083015261194481611908565b9050919050565b7f4e487b7100000000000000000000000000000000000000000000000000000000600052601160045260246000fd5b600061198582610dd3565b91507fffffffffffffffffffffffffffffffffffffffffffffffffffffffffffffffff82036119b7576119b661194b565b5b60018201905091905056fea264697066735822122046c35bcda49ef4f6c2dea504a88f11affdc8bce7293f82ddb2ebb2e07c5ddfce64736f6c63430008140033",
  "linkReferences": {},
  "deployedLinkReferences": {}
}